{
  "_format": "hh-sol-artifact-1",
  "contractName": "AMM",
  "sourceName": "contracts/AMM.sol",
  "abi": [
    {
      "inputs": [
        {
          "internalType": "address",
          "name": "_token0",
          "type": "address"
        },
        {
          "internalType": "address",
          "name": "_token1",
          "type": "address"
        }
      ],
      "stateMutability": "nonpayable",
      "type": "constructor"
    },
    {
      "anonymous": false,
      "inputs": [
        {
          "indexed": true,
          "internalType": "address",
          "name": "sender",
          "type": "address"
        },
        {
          "indexed": false,
          "internalType": "uint256",
          "name": "amount0",
          "type": "uint256"
        },
        {
          "indexed": false,
          "internalType": "uint256",
          "name": "amount1",
          "type": "uint256"
        }
      ],
      "name": "AddLiquidity",
      "type": "event"
    },
    {
      "anonymous": false,
      "inputs": [
        {
          "indexed": true,
          "internalType": "address",
          "name": "sender",
          "type": "address"
        },
        {
          "indexed": false,
          "internalType": "uint256",
          "name": "amount0",
          "type": "uint256"
        },
        {
          "indexed": false,
          "internalType": "uint256",
          "name": "amount1",
          "type": "uint256"
        }
      ],
      "name": "RemoveLiquidity",
      "type": "event"
    },
    {
      "anonymous": false,
      "inputs": [
        {
          "indexed": true,
          "internalType": "address",
          "name": "sender",
          "type": "address"
        },
        {
          "indexed": false,
          "internalType": "uint256",
          "name": "amountIn",
          "type": "uint256"
        },
        {
          "indexed": false,
          "internalType": "uint256",
          "name": "amountOut",
          "type": "uint256"
        }
      ],
      "name": "Swap",
      "type": "event"
    },
    {
      "inputs": [
        {
          "internalType": "uint256",
          "name": "_amount0",
          "type": "uint256"
        },
        {
          "internalType": "uint256",
          "name": "_amount1",
          "type": "uint256"
        }
      ],
      "name": "addLiquidity",
      "outputs": [
        {
          "internalType": "uint256",
          "name": "shares",
          "type": "uint256"
        }
      ],
      "stateMutability": "nonpayable",
      "type": "function"
    },
    {
      "inputs": [
        {
          "internalType": "address",
          "name": "",
          "type": "address"
        }
      ],
      "name": "balanceOf",
      "outputs": [
        {
          "internalType": "uint256",
          "name": "",
          "type": "uint256"
        }
      ],
      "stateMutability": "view",
      "type": "function"
    },
    {
      "inputs": [],
      "name": "getBalance",
      "outputs": [
        {
          "internalType": "uint256",
          "name": "_balance0",
          "type": "uint256"
        },
        {
          "internalType": "uint256",
          "name": "_balance1",
          "type": "uint256"
        }
      ],
      "stateMutability": "view",
      "type": "function"
    },
    {
      "inputs": [],
      "name": "getReserves",
      "outputs": [
        {
          "internalType": "uint256",
          "name": "_reserve0",
          "type": "uint256"
        },
        {
          "internalType": "uint256",
          "name": "_reserve1",
          "type": "uint256"
        }
      ],
      "stateMutability": "view",
      "type": "function"
    },
    {
      "inputs": [],
      "name": "getShares",
      "outputs": [
        {
          "internalType": "uint256",
          "name": "",
          "type": "uint256"
        }
      ],
      "stateMutability": "view",
      "type": "function"
    },
    {
      "inputs": [
        {
          "internalType": "uint256",
          "name": "_shares",
          "type": "uint256"
        }
      ],
      "name": "removeLiquidity",
      "outputs": [
        {
          "internalType": "uint256",
          "name": "amount0",
          "type": "uint256"
        },
        {
          "internalType": "uint256",
          "name": "amount1",
          "type": "uint256"
        }
      ],
      "stateMutability": "nonpayable",
      "type": "function"
    },
    {
      "inputs": [],
      "name": "reserve0",
      "outputs": [
        {
          "internalType": "uint256",
          "name": "",
          "type": "uint256"
        }
      ],
      "stateMutability": "view",
      "type": "function"
    },
    {
      "inputs": [],
      "name": "reserve1",
      "outputs": [
        {
          "internalType": "uint256",
          "name": "",
          "type": "uint256"
        }
      ],
      "stateMutability": "view",
      "type": "function"
    },
    {
      "inputs": [
        {
          "internalType": "address",
          "name": "_tokenIn",
          "type": "address"
        },
        {
          "internalType": "uint256",
          "name": "_amountIn",
          "type": "uint256"
        }
      ],
      "name": "swap",
      "outputs": [
        {
          "internalType": "uint256",
          "name": "amountOut",
          "type": "uint256"
        }
      ],
      "stateMutability": "nonpayable",
      "type": "function"
    },
    {
      "inputs": [],
      "name": "token0",
      "outputs": [
        {
          "internalType": "contract IERC20",
          "name": "",
          "type": "address"
        }
      ],
      "stateMutability": "view",
      "type": "function"
    },
    {
      "inputs": [],
      "name": "token1",
      "outputs": [
        {
          "internalType": "contract IERC20",
          "name": "",
          "type": "address"
        }
      ],
      "stateMutability": "view",
      "type": "function"
    },
    {
      "inputs": [],
      "name": "totalSupply",
      "outputs": [
        {
          "internalType": "uint256",
          "name": "",
          "type": "uint256"
        }
      ],
      "stateMutability": "view",
      "type": "function"
    }
  ],
  "bytecode": "0x60c06040523480156200001157600080fd5b5060405162001b5438038062001b54833981810160405281019062000037919062000111565b8173ffffffffffffffffffffffffffffffffffffffff1660808173ffffffffffffffffffffffffffffffffffffffff16815250508073ffffffffffffffffffffffffffffffffffffffff1660a08173ffffffffffffffffffffffffffffffffffffffff1681525050505062000158565b600080fd5b600073ffffffffffffffffffffffffffffffffffffffff82169050919050565b6000620000d982620000ac565b9050919050565b620000eb81620000cc565b8114620000f757600080fd5b50565b6000815190506200010b81620000e0565b92915050565b600080604083850312156200012b576200012a620000a7565b5b60006200013b85828601620000fa565b92505060206200014e85828601620000fa565b9150509250929050565b60805160a0516119516200020360003960008181610340015281816104af015281816106990152818161083201528181610a9701528181610be301528181610d1301528181610d8101528181610f91015261108c01526000818161027f015281816102a601528181610411015281816105fa01528181610791015281816109fd01528181610b8e01528181610cb701528181610d3401528181610d600152610ef701526119516000f3fe608060405234801561001057600080fd5b50600436106100b45760003560e01c806370a082311161007157806370a082311461016f5780639c8f9f231461019f5780639cd441da146101d0578063d004f0f714610200578063d21220a714610230578063d73fe0aa1461024e576100b4565b80630902f1ac146100b95780630dfe1681146100d857806312065fe0146100f657806318160ddd14610115578063443cb4bc146101335780635a76f25e14610151575b600080fd5b6100c161026c565b6040516100cf92919061125d565b60405180910390f35b6100e061027d565b6040516100ed9190611305565b60405180910390f35b6100fe6102a1565b60405161010c92919061125d565b60405180910390f35b61011d6103e0565b60405161012a9190611320565b60405180910390f35b61013b6103e6565b6040516101489190611320565b60405180910390f35b6101596103ec565b6040516101669190611320565b60405180910390f35b6101896004803603810190610184919061137e565b6103f2565b6040516101969190611320565b60405180910390f35b6101b960048036038101906101b491906113d7565b61040a565b6040516101c792919061125d565b60405180910390f35b6101ea60048036038101906101e59190611404565b61078d565b6040516101f79190611320565b60405180910390f35b61021a60048036038101906102159190611444565b610b8a565b6040516102279190611320565b60405180910390f35b61023861108a565b6040516102459190611305565b60405180910390f35b6102566110ae565b6040516102639190611320565b60405180910390f35b600080600054600154915091509091565b7f000000000000000000000000000000000000000000000000000000000000000081565b6000807f000000000000000000000000000000000000000000000000000000000000000073ffffffffffffffffffffffffffffffffffffffff166370a08231306040518263ffffffff1660e01b81526004016102fd9190611493565b602060405180830381865afa15801561031a573d6000803e3d6000fd5b505050506040513d601f19601f8201168201806040525081019061033e91906114c3565b7f000000000000000000000000000000000000000000000000000000000000000073ffffffffffffffffffffffffffffffffffffffff166370a08231306040518263ffffffff1660e01b81526004016103979190611493565b602060405180830381865afa1580156103b4573d6000803e3d6000fd5b505050506040513d601f19601f820116820180604052508101906103d891906114c3565b915091509091565b60025481565b60005481565b60015481565b60036020528060005260406000206000915090505481565b60008060007f000000000000000000000000000000000000000000000000000000000000000073ffffffffffffffffffffffffffffffffffffffff166370a08231306040518263ffffffff1660e01b81526004016104689190611493565b602060405180830381865afa158015610485573d6000803e3d6000fd5b505050506040513d601f19601f820116820180604052508101906104a991906114c3565b905060007f000000000000000000000000000000000000000000000000000000000000000073ffffffffffffffffffffffffffffffffffffffff166370a08231306040518263ffffffff1660e01b81526004016105069190611493565b602060405180830381865afa158015610523573d6000803e3d6000fd5b505050506040513d601f19601f8201168201806040525081019061054791906114c3565b90506002548286610558919061151f565b6105629190611590565b93506002548186610573919061151f565b61057d9190611590565b925060008411801561058f5750600083115b6105ce576040517f08c379a00000000000000000000000000000000000000000000000000000000081526004016105c59061161e565b60405180910390fd5b6105d833866110b8565b6105f884836105e7919061163e565b84836105f3919061163e565b61112b565b7f000000000000000000000000000000000000000000000000000000000000000073ffffffffffffffffffffffffffffffffffffffff1663a9059cbb33866040518363ffffffff1660e01b8152600401610653929190611672565b6020604051808303816000875af1158015610672573d6000803e3d6000fd5b505050506040513d601f19601f8201168201806040525081019061069691906116d3565b507f000000000000000000000000000000000000000000000000000000000000000073ffffffffffffffffffffffffffffffffffffffff1663a9059cbb33856040518363ffffffff1660e01b81526004016106f2929190611672565b6020604051808303816000875af1158015610711573d6000803e3d6000fd5b505050506040513d601f19601f8201168201806040525081019061073591906116d3565b503373ffffffffffffffffffffffffffffffffffffffff167f0fbf06c058b90cb038a618f8c2acbf6145f8b3570fd1fa56abb8f0f3f05b36e8858560405161077e92919061125d565b60405180910390a25050915091565b60007f000000000000000000000000000000000000000000000000000000000000000073ffffffffffffffffffffffffffffffffffffffff166323b872dd3330866040518463ffffffff1660e01b81526004016107ec93929190611700565b6020604051808303816000875af115801561080b573d6000803e3d6000fd5b505050506040513d601f19601f8201168201806040525081019061082f91906116d3565b507f000000000000000000000000000000000000000000000000000000000000000073ffffffffffffffffffffffffffffffffffffffff166323b872dd3330856040518463ffffffff1660e01b815260040161088d93929190611700565b6020604051808303816000875af11580156108ac573d6000803e3d6000fd5b505050506040513d601f19601f820116820180604052508101906108d091906116d3565b506000805411806108e357506000600154115b1561094557826001546108f6919061151f565b82600054610904919061151f565b14610944576040517f08c379a000000000000000000000000000000000000000000000000000000000815260040161093b90611783565b60405180910390fd5b5b60006002540361096a57610963828461095e919061151f565b61113d565b90506109ab565b6109a86000546002548561097e919061151f565b6109889190611590565b60015460025485610999919061151f565b6109a39190611590565b6111b7565b90505b600081116109ee576040517f08c379a00000000000000000000000000000000000000000000000000000000081526004016109e5906117ef565b60405180910390fd5b6109f833826111d1565b610b347f000000000000000000000000000000000000000000000000000000000000000073ffffffffffffffffffffffffffffffffffffffff166370a08231306040518263ffffffff1660e01b8152600401610a549190611493565b602060405180830381865afa158015610a71573d6000803e3d6000fd5b505050506040513d601f19601f82011682018060405250810190610a9591906114c3565b7f000000000000000000000000000000000000000000000000000000000000000073ffffffffffffffffffffffffffffffffffffffff166370a08231306040518263ffffffff1660e01b8152600401610aee9190611493565b602060405180830381865afa158015610b0b573d6000803e3d6000fd5b505050506040513d601f19601f82011682018060405250810190610b2f91906114c3565b61112b565b3373ffffffffffffffffffffffffffffffffffffffff167f06239653922ac7bea6aa2b19dc486b9361821d37712eb796adfd38d81de278ca8484604051610b7c92919061125d565b60405180910390a292915050565b60007f000000000000000000000000000000000000000000000000000000000000000073ffffffffffffffffffffffffffffffffffffffff168373ffffffffffffffffffffffffffffffffffffffff161480610c3157507f000000000000000000000000000000000000000000000000000000000000000073ffffffffffffffffffffffffffffffffffffffff168373ffffffffffffffffffffffffffffffffffffffff16145b610c70576040517f08c379a0000000000000000000000000000000000000000000000000000000008152600401610c679061185b565b60405180910390fd5b60008211610cb3576040517f08c379a0000000000000000000000000000000000000000000000000000000008152600401610caa906118c7565b60405180910390fd5b60007f000000000000000000000000000000000000000000000000000000000000000073ffffffffffffffffffffffffffffffffffffffff168473ffffffffffffffffffffffffffffffffffffffff1614905060008060008084610d5e577f00000000000000000000000000000000000000000000000000000000000000007f0000000000000000000000000000000000000000000000000000000000000000600154600054610da7565b7f00000000000000000000000000000000000000000000000000000000000000007f00000000000000000000000000000000000000000000000000000000000000006000546001545b93509350935093508373ffffffffffffffffffffffffffffffffffffffff166323b872dd33308a6040518463ffffffff1660e01b8152600401610dec93929190611700565b6020604051808303816000875af1158015610e0b573d6000803e3d6000fd5b505050506040513d601f19601f82011682018060405250810190610e2f91906116d3565b5060006103e86103e589610e43919061151f565b610e4d9190611590565b90508083610e5b91906118e7565b8183610e67919061151f565b610e719190611590565b96508373ffffffffffffffffffffffffffffffffffffffff1663a9059cbb33896040518363ffffffff1660e01b8152600401610eae929190611672565b6020604051808303816000875af1158015610ecd573d6000803e3d6000fd5b505050506040513d601f19601f82011682018060405250810190610ef191906116d3565b5061102e7f000000000000000000000000000000000000000000000000000000000000000073ffffffffffffffffffffffffffffffffffffffff166370a08231306040518263ffffffff1660e01b8152600401610f4e9190611493565b602060405180830381865afa158015610f6b573d6000803e3d6000fd5b505050506040513d601f19601f82011682018060405250810190610f8f91906114c3565b7f000000000000000000000000000000000000000000000000000000000000000073ffffffffffffffffffffffffffffffffffffffff166370a08231306040518263ffffffff1660e01b8152600401610fe89190611493565b602060405180830381865afa158015611005573d6000803e3d6000fd5b505050506040513d601f19601f8201168201806040525081019061102991906114c3565b61112b565b3373ffffffffffffffffffffffffffffffffffffffff167f77f92a1b6a1a11de8ca49515ad4c1fad45632dd3442167d74b90b304a3c7a758898960405161107692919061125d565b60405180910390a250505050505092915050565b7f000000000000000000000000000000000000000000000000000000000000000081565b6000600254905090565b80600360008473ffffffffffffffffffffffffffffffffffffffff1673ffffffffffffffffffffffffffffffffffffffff1681526020019081526020016000206000828254611107919061163e565b925050819055508060026000828254611120919061163e565b925050819055505050565b81600081905550806001819055505050565b600060038211156111a4578190506000600160028461115c9190611590565b61116691906118e7565b90505b8181101561119e5780915060028182856111839190611590565b61118d91906118e7565b6111979190611590565b9050611169565b506111b2565b600082146111b157600190505b5b919050565b6000818311156111c757816111c9565b825b905092915050565b80600360008473ffffffffffffffffffffffffffffffffffffffff1673ffffffffffffffffffffffffffffffffffffffff168152602001908152602001600020600082825461122091906118e7565b92505081905550806002600082825461123991906118e7565b925050819055505050565b6000819050919050565b61125781611244565b82525050565b6000604082019050611272600083018561124e565b61127f602083018461124e565b9392505050565b600073ffffffffffffffffffffffffffffffffffffffff82169050919050565b6000819050919050565b60006112cb6112c66112c184611286565b6112a6565b611286565b9050919050565b60006112dd826112b0565b9050919050565b60006112ef826112d2565b9050919050565b6112ff816112e4565b82525050565b600060208201905061131a60008301846112f6565b92915050565b6000602082019050611335600083018461124e565b92915050565b600080fd5b600061134b82611286565b9050919050565b61135b81611340565b811461136657600080fd5b50565b60008135905061137881611352565b92915050565b6000602082840312156113945761139361133b565b5b60006113a284828501611369565b91505092915050565b6113b481611244565b81146113bf57600080fd5b50565b6000813590506113d1816113ab565b92915050565b6000602082840312156113ed576113ec61133b565b5b60006113fb848285016113c2565b91505092915050565b6000806040838503121561141b5761141a61133b565b5b6000611429858286016113c2565b925050602061143a858286016113c2565b9150509250929050565b6000806040838503121561145b5761145a61133b565b5b600061146985828601611369565b925050602061147a858286016113c2565b9150509250929050565b61148d81611340565b82525050565b60006020820190506114a86000830184611484565b92915050565b6000815190506114bd816113ab565b92915050565b6000602082840312156114d9576114d861133b565b5b60006114e7848285016114ae565b91505092915050565b7f4e487b7100000000000000000000000000000000000000000000000000000000600052601160045260246000fd5b600061152a82611244565b915061153583611244565b925082820261154381611244565b9150828204841483151761155a576115596114f0565b5b5092915050565b7f4e487b7100000000000000000000000000000000000000000000000000000000600052601260045260246000fd5b600061159b82611244565b91506115a683611244565b9250826115b6576115b5611561565b5b828204905092915050565b600082825260208201905092915050565b7f616d6f756e7430206f7220616d6f756e7431203d203000000000000000000000600082015250565b60006116086016836115c1565b9150611613826115d2565b602082019050919050565b60006020820190508181036000830152611637816115fb565b9050919050565b600061164982611244565b915061165483611244565b925082820390508181111561166c5761166b6114f0565b5b92915050565b60006040820190506116876000830185611484565b611694602083018461124e565b9392505050565b60008115159050919050565b6116b08161169b565b81146116bb57600080fd5b50565b6000815190506116cd816116a7565b92915050565b6000602082840312156116e9576116e861133b565b5b60006116f7848285016116be565b91505092915050565b60006060820190506117156000830186611484565b6117226020830185611484565b61172f604083018461124e565b949350505050565b7f78202f207920213d206478202f20647900000000000000000000000000000000600082015250565b600061176d6010836115c1565b915061177882611737565b602082019050919050565b6000602082019050818103600083015261179c81611760565b9050919050565b7f736861726573203d203000000000000000000000000000000000000000000000600082015250565b60006117d9600a836115c1565b91506117e4826117a3565b602082019050919050565b60006020820190508181036000830152611808816117cc565b9050919050565b7f696e76616c696420746f6b656e00000000000000000000000000000000000000600082015250565b6000611845600d836115c1565b91506118508261180f565b602082019050919050565b6000602082019050818103600083015261187481611838565b9050919050565b7f616d6f756e7420696e203d203000000000000000000000000000000000000000600082015250565b60006118b1600d836115c1565b91506118bc8261187b565b602082019050919050565b600060208201905081810360008301526118e0816118a4565b9050919050565b60006118f282611244565b91506118fd83611244565b9250828201905080821115611915576119146114f0565b5b9291505056fea2646970667358221220eb75c109543a1f6d688e3e1ece24e9e3a778ea81ec3585fac73856916af6263164736f6c63430008180033",
  "linkReferences": {},
  "deployedLinkReferences": {}
}