{
  "_format": "hh-sol-artifact-1",
  "contractName": "AUSD",
  "sourceName": "contracts/AUSD.sol",
  "abi": [
    {
      "inputs": [],
      "stateMutability": "nonpayable",
      "type": "constructor"
    },
    {
      "inputs": [
        {
          "internalType": "address",
          "name": "spender",
          "type": "address"
        },
        {
          "internalType": "uint256",
          "name": "allowance",
          "type": "uint256"
        },
        {
          "internalType": "uint256",
          "name": "needed",
          "type": "uint256"
        }
      ],
      "name": "ERC20InsufficientAllowance",
      "type": "error"
    },
    {
      "inputs": [
        {
          "internalType": "address",
          "name": "sender",
          "type": "address"
        },
        {
          "internalType": "uint256",
          "name": "balance",
          "type": "uint256"
        },
        {
          "internalType": "uint256",
          "name": "needed",
          "type": "uint256"
        }
      ],
      "name": "ERC20InsufficientBalance",
      "type": "error"
    },
    {
      "inputs": [
        {
          "internalType": "address",
          "name": "approver",
          "type": "address"
        }
      ],
      "name": "ERC20InvalidApprover",
      "type": "error"
    },
    {
      "inputs": [
        {
          "internalType": "address",
          "name": "receiver",
          "type": "address"
        }
      ],
      "name": "ERC20InvalidReceiver",
      "type": "error"
    },
    {
      "inputs": [
        {
          "internalType": "address",
          "name": "sender",
          "type": "address"
        }
      ],
      "name": "ERC20InvalidSender",
      "type": "error"
    },
    {
      "inputs": [
        {
          "internalType": "address",
          "name": "spender",
          "type": "address"
        }
      ],
      "name": "ERC20InvalidSpender",
      "type": "error"
    },
    {
      "anonymous": false,
      "inputs": [
        {
          "indexed": true,
          "internalType": "address",
          "name": "owner",
          "type": "address"
        },
        {
          "indexed": true,
          "internalType": "address",
          "name": "spender",
          "type": "address"
        },
        {
          "indexed": false,
          "internalType": "uint256",
          "name": "value",
          "type": "uint256"
        }
      ],
      "name": "Approval",
      "type": "event"
    },
    {
      "anonymous": false,
      "inputs": [
        {
          "indexed": true,
          "internalType": "address",
          "name": "from",
          "type": "address"
        },
        {
          "indexed": true,
          "internalType": "address",
          "name": "to",
          "type": "address"
        },
        {
          "indexed": false,
          "internalType": "uint256",
          "name": "value",
          "type": "uint256"
        }
      ],
      "name": "Transfer",
      "type": "event"
    },
    {
      "inputs": [
        {
          "internalType": "address",
          "name": "owner",
          "type": "address"
        },
        {
          "internalType": "address",
          "name": "spender",
          "type": "address"
        }
      ],
      "name": "allowance",
      "outputs": [
        {
          "internalType": "uint256",
          "name": "",
          "type": "uint256"
        }
      ],
      "stateMutability": "view",
      "type": "function"
    },
    {
      "inputs": [
        {
          "internalType": "address",
          "name": "spender",
          "type": "address"
        },
        {
          "internalType": "uint256",
          "name": "value",
          "type": "uint256"
        }
      ],
      "name": "approve",
      "outputs": [
        {
          "internalType": "bool",
          "name": "",
          "type": "bool"
        }
      ],
      "stateMutability": "nonpayable",
      "type": "function"
    },
    {
      "inputs": [
        {
          "internalType": "address",
          "name": "account",
          "type": "address"
        }
      ],
      "name": "balanceOf",
      "outputs": [
        {
          "internalType": "uint256",
          "name": "",
          "type": "uint256"
        }
      ],
      "stateMutability": "view",
      "type": "function"
    },
    {
      "inputs": [
        {
          "internalType": "address",
          "name": "account",
          "type": "address"
        },
        {
          "internalType": "uint256",
          "name": "amount",
          "type": "uint256"
        }
      ],
      "name": "burnFrom",
      "outputs": [],
      "stateMutability": "nonpayable",
      "type": "function"
    },
    {
      "inputs": [],
      "name": "decimals",
      "outputs": [
        {
          "internalType": "uint8",
          "name": "",
          "type": "uint8"
        }
      ],
      "stateMutability": "view",
      "type": "function"
    },
    {
      "inputs": [],
      "name": "getOwner",
      "outputs": [
        {
          "internalType": "address",
          "name": "",
          "type": "address"
        }
      ],
      "stateMutability": "view",
      "type": "function"
    },
    {
      "inputs": [
        {
          "internalType": "address",
          "name": "to",
          "type": "address"
        },
        {
          "internalType": "uint256",
          "name": "amount",
          "type": "uint256"
        }
      ],
      "name": "mintTo",
      "outputs": [],
      "stateMutability": "nonpayable",
      "type": "function"
    },
    {
      "inputs": [],
      "name": "name",
      "outputs": [
        {
          "internalType": "string",
          "name": "",
          "type": "string"
        }
      ],
      "stateMutability": "view",
      "type": "function"
    },
    {
      "inputs": [],
      "name": "symbol",
      "outputs": [
        {
          "internalType": "string",
          "name": "",
          "type": "string"
        }
      ],
      "stateMutability": "view",
      "type": "function"
    },
    {
      "inputs": [],
      "name": "totalSupply",
      "outputs": [
        {
          "internalType": "uint256",
          "name": "",
          "type": "uint256"
        }
      ],
      "stateMutability": "view",
      "type": "function"
    },
    {
      "inputs": [
        {
          "internalType": "address",
          "name": "to",
          "type": "address"
        },
        {
          "internalType": "uint256",
          "name": "value",
          "type": "uint256"
        }
      ],
      "name": "transfer",
      "outputs": [
        {
          "internalType": "bool",
          "name": "",
          "type": "bool"
        }
      ],
      "stateMutability": "nonpayable",
      "type": "function"
    },
    {
      "inputs": [
        {
          "internalType": "address",
          "name": "from",
          "type": "address"
        },
        {
          "internalType": "address",
          "name": "to",
          "type": "address"
        },
        {
          "internalType": "uint256",
          "name": "value",
          "type": "uint256"
        }
      ],
      "name": "transferFrom",
      "outputs": [
        {
          "internalType": "bool",
          "name": "",
          "type": "bool"
        }
      ],
      "stateMutability": "nonpayable",
      "type": "function"
    }
  ],
  "bytecode": "0x60806040523480156200001157600080fd5b506040518060400160405280600481526020017f41555344000000000000000000000000000000000000000000000000000000008152506040518060400160405280600481526020017f415553440000000000000000000000000000000000000000000000000000000081525081600390816200008f919062000681565b508060049081620000a1919062000681565b505050620000e333620000b96200012a60201b60201c565b600a620000c79190620008f8565b620f4240620000d7919062000949565b6200014160201b60201c565b33600560006101000a81548173ffffffffffffffffffffffffffffffffffffffff021916908373ffffffffffffffffffffffffffffffffffffffff16021790555062000a9c565b60006200013c620001ce60201b60201c565b905090565b600073ffffffffffffffffffffffffffffffffffffffff168273ffffffffffffffffffffffffffffffffffffffff1603620001b65760006040517fec442f05000000000000000000000000000000000000000000000000000000008152600401620001ad9190620009d9565b60405180910390fd5b620001ca60008383620001d760201b60201c565b5050565b60006012905090565b600073ffffffffffffffffffffffffffffffffffffffff168373ffffffffffffffffffffffffffffffffffffffff16036200022d578060026000828254620002209190620009f6565b9250508190555062000303565b60008060008573ffffffffffffffffffffffffffffffffffffffff1673ffffffffffffffffffffffffffffffffffffffff16815260200190815260200160002054905081811015620002bc578381836040517fe450d38c000000000000000000000000000000000000000000000000000000008152600401620002b39392919062000a42565b60405180910390fd5b8181036000808673ffffffffffffffffffffffffffffffffffffffff1673ffffffffffffffffffffffffffffffffffffffff16815260200190815260200160002081905550505b600073ffffffffffffffffffffffffffffffffffffffff168273ffffffffffffffffffffffffffffffffffffffff16036200034e57806002600082825403925050819055506200039b565b806000808473ffffffffffffffffffffffffffffffffffffffff1673ffffffffffffffffffffffffffffffffffffffff168152602001908152602001600020600082825401925050819055505b8173ffffffffffffffffffffffffffffffffffffffff168373ffffffffffffffffffffffffffffffffffffffff167fddf252ad1be2c89b69c2b068fc378daa952ba7f163c4a11628f55a4df523b3ef83604051620003fa919062000a7f565b60405180910390a3505050565b600081519050919050565b7f4e487b7100000000000000000000000000000000000000000000000000000000600052604160045260246000fd5b7f4e487b7100000000000000000000000000000000000000000000000000000000600052602260045260246000fd5b600060028204905060018216806200048957607f821691505b6020821081036200049f576200049e62000441565b5b50919050565b60008190508160005260206000209050919050565b60006020601f8301049050919050565b600082821b905092915050565b600060088302620005097fffffffffffffffffffffffffffffffffffffffffffffffffffffffffffffffff82620004ca565b620005158683620004ca565b95508019841693508086168417925050509392505050565b6000819050919050565b6000819050919050565b6000620005626200055c62000556846200052d565b62000537565b6200052d565b9050919050565b6000819050919050565b6200057e8362000541565b620005966200058d8262000569565b848454620004d7565b825550505050565b600090565b620005ad6200059e565b620005ba81848462000573565b505050565b5b81811015620005e257620005d6600082620005a3565b600181019050620005c0565b5050565b601f8211156200063157620005fb81620004a5565b6200060684620004ba565b8101602085101562000616578190505b6200062e6200062585620004ba565b830182620005bf565b50505b505050565b600082821c905092915050565b6000620006566000198460080262000636565b1980831691505092915050565b600062000671838362000643565b9150826002028217905092915050565b6200068c8262000407565b67ffffffffffffffff811115620006a857620006a762000412565b5b620006b4825462000470565b620006c1828285620005e6565b600060209050601f831160018114620006f95760008415620006e4578287015190505b620006f0858262000663565b86555062000760565b601f1984166200070986620004a5565b60005b8281101562000733578489015182556001820191506020850194506020810190506200070c565b868310156200075357848901516200074f601f89168262000643565b8355505b6001600288020188555050505b505050505050565b7f4e487b7100000000000000000000000000000000000000000000000000000000600052601160045260246000fd5b60008160011c9050919050565b6000808291508390505b6001851115620007f657808604811115620007ce57620007cd62000768565b5b6001851615620007de5780820291505b8081029050620007ee8562000797565b9450620007ae565b94509492505050565b600082620008115760019050620008e4565b81620008215760009050620008e4565b81600181146200083a576002811462000845576200087b565b6001915050620008e4565b60ff8411156200085a576200085962000768565b5b8360020a91508482111562000874576200087362000768565b5b50620008e4565b5060208310610133831016604e8410600b8410161715620008b55782820a905083811115620008af57620008ae62000768565b5b620008e4565b620008c48484846001620007a4565b92509050818404811115620008de57620008dd62000768565b5b81810290505b9392505050565b600060ff82169050919050565b600062000905826200052d565b91506200091283620008eb565b9250620009417fffffffffffffffffffffffffffffffffffffffffffffffffffffffffffffffff8484620007ff565b905092915050565b600062000956826200052d565b915062000963836200052d565b925082820262000973816200052d565b915082820484148315176200098d576200098c62000768565b5b5092915050565b600073ffffffffffffffffffffffffffffffffffffffff82169050919050565b6000620009c18262000994565b9050919050565b620009d381620009b4565b82525050565b6000602082019050620009f06000830184620009c8565b92915050565b600062000a03826200052d565b915062000a10836200052d565b925082820190508082111562000a2b5762000a2a62000768565b5b92915050565b62000a3c816200052d565b82525050565b600060608201905062000a596000830186620009c8565b62000a68602083018562000a31565b62000a77604083018462000a31565b949350505050565b600060208201905062000a96600083018462000a31565b92915050565b6110258062000aac6000396000f3fe608060405234801561001057600080fd5b50600436106100b45760003560e01c806370a082311161007157806370a082311461018f57806379cc6790146101bf578063893d20e8146101db57806395d89b41146101f9578063a9059cbb14610217578063dd62ed3e14610247576100b4565b806306fdde03146100b9578063095ea7b3146100d757806318160ddd1461010757806323b872dd14610125578063313ce56714610155578063449a52f814610173575b600080fd5b6100c1610277565b6040516100ce9190610c79565b60405180910390f35b6100f160048036038101906100ec9190610d34565b610309565b6040516100fe9190610d8f565b60405180910390f35b61010f61032c565b60405161011c9190610db9565b60405180910390f35b61013f600480360381019061013a9190610dd4565b610336565b60405161014c9190610d8f565b60405180910390f35b61015d610365565b60405161016a9190610e43565b60405180910390f35b61018d60048036038101906101889190610d34565b610374565b005b6101a960048036038101906101a49190610e5e565b610382565b6040516101b69190610db9565b60405180910390f35b6101d960048036038101906101d49190610d34565b6103ca565b005b6101e36103d8565b6040516101f09190610e9a565b60405180910390f35b610201610402565b60405161020e9190610c79565b60405180910390f35b610231600480360381019061022c9190610d34565b610494565b60405161023e9190610d8f565b60405180910390f35b610261600480360381019061025c9190610eb5565b6104b7565b60405161026e9190610db9565b60405180910390f35b60606003805461028690610f24565b80601f01602080910402602001604051908101604052809291908181526020018280546102b290610f24565b80156102ff5780601f106102d4576101008083540402835291602001916102ff565b820191906000526020600020905b8154815290600101906020018083116102e257829003601f168201915b5050505050905090565b60008061031461053e565b9050610321818585610546565b600191505092915050565b6000600254905090565b60008061034161053e565b905061034e858285610558565b6103598585856105ec565b60019150509392505050565b600061036f6106e0565b905090565b61037e82826106e9565b5050565b60008060008373ffffffffffffffffffffffffffffffffffffffff1673ffffffffffffffffffffffffffffffffffffffff168152602001908152602001600020549050919050565b6103d4828261076b565b5050565b6000600560009054906101000a900473ffffffffffffffffffffffffffffffffffffffff16905090565b60606004805461041190610f24565b80601f016020809104026020016040519081016040528092919081815260200182805461043d90610f24565b801561048a5780601f1061045f5761010080835404028352916020019161048a565b820191906000526020600020905b81548152906001019060200180831161046d57829003601f168201915b5050505050905090565b60008061049f61053e565b90506104ac8185856105ec565b600191505092915050565b6000600160008473ffffffffffffffffffffffffffffffffffffffff1673ffffffffffffffffffffffffffffffffffffffff16815260200190815260200160002060008373ffffffffffffffffffffffffffffffffffffffff1673ffffffffffffffffffffffffffffffffffffffff16815260200190815260200160002054905092915050565b600033905090565b61055383838360016107ed565b505050565b600061056484846104b7565b90507fffffffffffffffffffffffffffffffffffffffffffffffffffffffffffffffff81146105e657818110156105d6578281836040517ffb8f41b20000000000000000000000000000000000000000000000000000000081526004016105cd93929190610f55565b60405180910390fd5b6105e5848484840360006107ed565b5b50505050565b600073ffffffffffffffffffffffffffffffffffffffff168373ffffffffffffffffffffffffffffffffffffffff160361065e5760006040517f96c6fd1e0000000000000000000000000000000000000000000000000000000081526004016106559190610e9a565b60405180910390fd5b600073ffffffffffffffffffffffffffffffffffffffff168273ffffffffffffffffffffffffffffffffffffffff16036106d05760006040517fec442f050000000000000000000000000000000000000000000000000000000081526004016106c79190610e9a565b60405180910390fd5b6106db8383836109c4565b505050565b60006012905090565b600073ffffffffffffffffffffffffffffffffffffffff168273ffffffffffffffffffffffffffffffffffffffff160361075b5760006040517fec442f050000000000000000000000000000000000000000000000000000000081526004016107529190610e9a565b60405180910390fd5b610767600083836109c4565b5050565b600073ffffffffffffffffffffffffffffffffffffffff168273ffffffffffffffffffffffffffffffffffffffff16036107dd5760006040517f96c6fd1e0000000000000000000000000000000000000000000000000000000081526004016107d49190610e9a565b60405180910390fd5b6107e9826000836109c4565b5050565b600073ffffffffffffffffffffffffffffffffffffffff168473ffffffffffffffffffffffffffffffffffffffff160361085f5760006040517fe602df050000000000000000000000000000000000000000000000000000000081526004016108569190610e9a565b60405180910390fd5b600073ffffffffffffffffffffffffffffffffffffffff168373ffffffffffffffffffffffffffffffffffffffff16036108d15760006040517f94280d620000000000000000000000000000000000000000000000000000000081526004016108c89190610e9a565b60405180910390fd5b81600160008673ffffffffffffffffffffffffffffffffffffffff1673ffffffffffffffffffffffffffffffffffffffff16815260200190815260200160002060008573ffffffffffffffffffffffffffffffffffffffff1673ffffffffffffffffffffffffffffffffffffffff1681526020019081526020016000208190555080156109be578273ffffffffffffffffffffffffffffffffffffffff168473ffffffffffffffffffffffffffffffffffffffff167f8c5be1e5ebec7d5bd14f71427d1e84f3dd0314c0f7b2291e5b200ac8c7c3b925846040516109b59190610db9565b60405180910390a35b50505050565b600073ffffffffffffffffffffffffffffffffffffffff168373ffffffffffffffffffffffffffffffffffffffff1603610a16578060026000828254610a0a9190610fbb565b92505081905550610ae9565b60008060008573ffffffffffffffffffffffffffffffffffffffff1673ffffffffffffffffffffffffffffffffffffffff16815260200190815260200160002054905081811015610aa2578381836040517fe450d38c000000000000000000000000000000000000000000000000000000008152600401610a9993929190610f55565b60405180910390fd5b8181036000808673ffffffffffffffffffffffffffffffffffffffff1673ffffffffffffffffffffffffffffffffffffffff16815260200190815260200160002081905550505b600073ffffffffffffffffffffffffffffffffffffffff168273ffffffffffffffffffffffffffffffffffffffff1603610b325780600260008282540392505081905550610b7f565b806000808473ffffffffffffffffffffffffffffffffffffffff1673ffffffffffffffffffffffffffffffffffffffff168152602001908152602001600020600082825401925050819055505b8173ffffffffffffffffffffffffffffffffffffffff168373ffffffffffffffffffffffffffffffffffffffff167fddf252ad1be2c89b69c2b068fc378daa952ba7f163c4a11628f55a4df523b3ef83604051610bdc9190610db9565b60405180910390a3505050565b600081519050919050565b600082825260208201905092915050565b60005b83811015610c23578082015181840152602081019050610c08565b60008484015250505050565b6000601f19601f8301169050919050565b6000610c4b82610be9565b610c558185610bf4565b9350610c65818560208601610c05565b610c6e81610c2f565b840191505092915050565b60006020820190508181036000830152610c938184610c40565b905092915050565b600080fd5b600073ffffffffffffffffffffffffffffffffffffffff82169050919050565b6000610ccb82610ca0565b9050919050565b610cdb81610cc0565b8114610ce657600080fd5b50565b600081359050610cf881610cd2565b92915050565b6000819050919050565b610d1181610cfe565b8114610d1c57600080fd5b50565b600081359050610d2e81610d08565b92915050565b60008060408385031215610d4b57610d4a610c9b565b5b6000610d5985828601610ce9565b9250506020610d6a85828601610d1f565b9150509250929050565b60008115159050919050565b610d8981610d74565b82525050565b6000602082019050610da46000830184610d80565b92915050565b610db381610cfe565b82525050565b6000602082019050610dce6000830184610daa565b92915050565b600080600060608486031215610ded57610dec610c9b565b5b6000610dfb86828701610ce9565b9350506020610e0c86828701610ce9565b9250506040610e1d86828701610d1f565b9150509250925092565b600060ff82169050919050565b610e3d81610e27565b82525050565b6000602082019050610e586000830184610e34565b92915050565b600060208284031215610e7457610e73610c9b565b5b6000610e8284828501610ce9565b91505092915050565b610e9481610cc0565b82525050565b6000602082019050610eaf6000830184610e8b565b92915050565b60008060408385031215610ecc57610ecb610c9b565b5b6000610eda85828601610ce9565b9250506020610eeb85828601610ce9565b9150509250929050565b7f4e487b7100000000000000000000000000000000000000000000000000000000600052602260045260246000fd5b60006002820490506001821680610f3c57607f821691505b602082108103610f4f57610f4e610ef5565b5b50919050565b6000606082019050610f6a6000830186610e8b565b610f776020830185610daa565b610f846040830184610daa565b949350505050565b7f4e487b7100000000000000000000000000000000000000000000000000000000600052601160045260246000fd5b6000610fc682610cfe565b9150610fd183610cfe565b9250828201905080821115610fe957610fe8610f8c565b5b9291505056fea26469706673582212207a9c66bedb5400dfb25b04999768b2eccee9a0a29f41292a29d1c111b74a902b64736f6c63430008180033",
  "linkReferences": {},
  "deployedLinkReferences": {}
}